:100000000C9475030C94DB1E0C94B01E0C94851E8E
:100010000C945A1E0C942F1E0C94041E0C94D91D83
:100020000C94AE1D0C94A6030C94A6030C94A6038A
:100030000C94A6030C94A6030C94A6030C94A6039C
:100040000C94A6030C9474210C94A6030C94A603A0
:100050000C94A6030C94A6030C94A6030C94641DA4
:100060000C94A6030C94901F0C94661F0C94A6038A
:100070000C94A6030C94A6030C94A6030C94A6035C
:100080000C9446210C94A6030C94A6030C94A6038E
:100090000C94A6030C94A6030C94A6030C94C61F00
:1000A0000C94A6030C94A6030C9418210C94A6039C
:1000B0000C94A6030C94A6030C94A6030C94EA20BB
:1000C0000C94A6030C94A6030C94A6030C94A6030C
:1000D0000C94A6030C94A6030C94301F0C94061FDA
:1000E0000C94A6030C94820D0C942E090C94700BA6
:1000F0000C947C0E0C941A060C949B040C94C01C5B
:100100000C94E3050C94B90B0C9424060C94A606ED
:100110000C9406060C94790A0C94A3060C94E90E30
:100120000C94B0040C94C9050C940B0D0C9493071B
:100130000C94720C0C9458160C94A4060C946D0B31
:100140000C94C2040C94F5100C9450090C94850D79
:100150000C94091D0C94730B0C947D0A0C94641080
:100160000C9438060C949E050C94CC040C94D30685
:100170000C947C0B0C94E6130C94A6050C94ED05E2
:100180000C947F0B0C94A5060C94290D0C94790EFD
:100190000C948D110C9404070C94B30B0C948B0BE2
:1001A0000C94D0040C94DC1C0C94CD1C0C94230DEA
:1001B0000C94B1090C9428160C94872A0C94A40F63
:1001C0000C94BA2C0C94041D0C942D090C94BA04B4
:1001D0000C94DA040C94A30B0C94F9110C94880B76
:1001E0000C94D21C0C94880D0C94B4040C940D0D3A
:1001F0000C94102D0C9471180C94D5040C94D71CED
:100200000C9429140C94662D0C94A7040C9484115E
:100210000C942E060C94F6060C94D1050C94AA04AA
:100220000C94D8140C94BE040C9495040C94AB0557
:100230000C94E11C0C94730A0C945D140C94850BC3
:100240000C94AB0F0C94D6040C94790B0C942E1CCC
:100250000C94EE160C94FF1C0C94A3040C94820BCB
:100260000C943A100C94A8030C94F7050C94D9053F
:100270000C9446070C94392C0C94DF0F0C94DF1669
:100280000C94260D0C947D090C94F51C0C940E1DF9
:100290000C94B60B0C948E0B0C944D040C94E2064B
:1002A0000C943D090C94E52C0C94C50E0C94122270
:1002B0000C948F2C0C94760B0C94BF050C94EC0EC4
:1002C0000C946E0A0C947F0E0C943B2D0C94FA1C2B
:1002D0000C942C0D0C94760A0C94F01C0C94D910F0
:1002E0000C94E4160C94200D0C94EB1C0C94451506
:1002F0000C94910B0C94C8040C949F040C9410065D
:100300000C94B5050C94E61C0C94642C0C94C91147
:1003100067656F6D657472795F6D7367732F56656E
:1003200063746F7233003461383432623635663448
:100330003133303834646332623130666234383499
:10034000656137663137007374645F6D7367732F4F
:1003500054696D650063643731363663373463350D
:1003600035326333313166626363326665356137D6
:10037000626332383900726F7373657269616C5FE2
:100380006D7367732F546F706963496E666F0030C9
:1003900061643531663838666334343839326638EA
:1003A0006331303638343037373634363030350014
:1003B000726F7373657269616C5F6D7367732F4CD5
:1003C0006F670031316162643733316332353933FD
:1003D00033323631636436313833626431326436F5
:1003E00032393500726F7373657269616C5F6D735A
:1003F00067732F52657175657374506172616D001A
:1004000039663065393862646136353938313938A2
:10041000366464663533616661376134306534391A
:10042000007374645F6D7367732F486561646572F0
:1004300000323137366465636165636263653738FE
:10044000616263336239366566303439666162658C
:10045000640073656E736F725F6D7367732F4E61A7
:10046000765361745374617475730033333163640C
:100470006264646661346263393666666333623926
:1004800061643938393030613534630073656E73B7
:100490006F725F6D7367732F4E6176536174466937
:1004A00078003264336138636434393962396234D4
:1004B000613032343966623938666430356366617A
:1004C00034380067656F6D657472795F6D7367733B
:1004D0002F5175617465726E696F6E0061373739BF
:1004E00038373966616466303136303733346639CF
:1004F0003036623863313963373030340073656EBB
:10050000736F725F6D7367732F496D750036613657
:10051000326336646161653130336634666635371F
:100520006131333264366639356365633200737422
:10053000645F6D7367732F466C6F61743634006649
:10054000646232383231306266613964376339311E
:100550003134363236303137386439613538340029
:1005600073656E736F725F6D7367732F52616E6721
:10057000650063303035633334323733646334328B
:100580003663363761303230613837626332343146
:1005900034380067656F6D657472795F6D7367736A
:1005A0002F547769737400396631393566383831BC
:1005B00032343666646661323739386431643365A3
:1005C0006562636138346100000021002400270067
:1005D0002A002D0030003300010100000401070152
:1005E0000A0100002200250028002B002E00310007
:1005F000340002010000050108010B0100000A0B94
:1006000002090C0D0E0807030401000000000000A1
:1006100000000000000000000000000000000000DA
:100620000000000000000000121110000000000097
:1006300000000000000000000000000000000000BA
:100640000000000020002300260029002C002F00BD
:10065000320000010000030106010901050505053E
:10066000070508080808020202020A0A080804042A
:100670000404010101010101010103030303030358
:100680000303040707070C0C0C0C0C0C0C0C0202E7
:10069000020206060606060606060B0B0B0B0B0BE4
:1006A0000B0B010210202008081020401020408071
:1006B0000201020108040201010204081020408026
:1006C00080402010080402018004020180402010B4
:1006D00008040201080402010102040810204080FD
:1006E0000102040810204080122211241FBECFEF07
:1006F000D1E2DEBFCDBF00E00CBF13E0A0E0B2E06E
:10070000E0EDF6E600E00BBF02C007900D92AE3AB6
:10071000B107D9F72EE0AEEAB3E001C01D92A63DC5
:10072000B207E1F713E0C5E7D3E000E006C0219788
:100730000109802FFE010E943B31C437D10780E0C0
:100740000807A9F70E943B260C9466330C9400001E
:10075000FC01448155816681778140935004509318
:1007600051046093520470935304828D938DA48D31
:10077000B58D8093540490935504A0935604B09380
:1007800057040895CF92DF92EF92FF92CF93DF93B9
:10079000EC016A017B01E889F98982E08083C11458
:1007A00081EED806E104F104A1F060E079E08DE388
:1007B00090E0A70196010E94A12E21503109410924
:1007C00051095695479537952795211580E13807AA
:1007D00098F0E889F989108260E874E88EE190E089
:1007E000A70196010E94A12E21503109410951090A
:1007F0005695479537952795EC85FD853083EE8591
:10080000FF852083188EEC89FD8986E08083EA8944
:10081000FB89808180618083EA89FB89808188608F
:100820008083EA89FB89808180688083EA89FB89EB
:1008300080818F7D8083DF91CF91FF90EF90DF905B
:10084000CF900895E8E8FDE030E020E0419151913B
:10085000452B91F4F901EE0FFF1FE857F24F9183FA
:10086000808323583F4FFC013683258324E739E0FA
:100870003087278381E008952F5F3F4F293131056D
:1008800029F780E0089591E09093C5048093E704F0
:100890001092C6041092E804089580917704909114
:1008A0007804891B990B0895CF93DF9300D01F9292
:1008B0001F92CDB7DEB72AE432E03A83298323E0E2
:1008C0002B837D836C83DC01ED91FC910190F081A1
:1008D000E02DAE014F5F5F4F67E070E019950F901C
:1008E0000F900F900F900F90DF91CF91089581504E
:1008F000823108F05AC0E82FF0E08827ED57FB4F0F
:100900008F4F0C943B31A304A70495049B049F04D0
:10091000D504AA04B004B404BA04BE04C204C804D2
:10092000CC04D504D004D604DA04809180008F77FB
:10093000809380000895809180008F7DF9CF809111
:100940008000877FF5CF84B58F7784BD089584B507
:100950008F7DFBCF8091B0008F778093B00008959A
:100960008091B0008F7DF9CF809190008F77809338
:1009700090000895809190008F7DF9CF8091900034
:10098000877FF5CF8091A0008F778093A000089596
:100990008091A0008F7DF9CF8091A000877FF5CF57
:1009A000809120018F77809320010895809120010C
:1009B0008F7DF9CF80912001877FF5CFCF93DF9393
:1009C000282F30E0F901E450FA4F8491F901EE55F7
:1009D000F94FD491F901E45AF94FC491CC23A1F015
:1009E00081110E947704EC2FF0E0EE0FFF1FEE5B09
:1009F000F94FA591B491EC91ED2381E090E009F4D9
:100A000080E0DF91CF91089580E090E0FACF1F93CE
:100A1000CF93DF93282F30E0F901E450FA4F84910F
:100A2000F901EE55F94FD491F901E45AF94FC49107
:100A3000CC23A9F0162F81110E947704EC2FF0E04F
:100A4000EE0FFF1FEE51FA4FA591B4918FB7F894B6
:100A5000EC91111108C0D095DE23DC938FBFDF919C
:100A6000CF911F910895DE2BF8CFCF93DF9390E0C5
:100A7000FC01EE55F94F2491845A994FFC01849161
:100A80008823D1F090E0880F991FFC01E853FA4FBA
:100A9000A591B491FC01EE51FA4FC591D491611129
:100AA0000EC09FB7F8948C91E22FE0958E238C9323
:100AB0002881E223E8839FBFDF91CF9108958FB70C
:100AC000F894EC91E22BEC938FBFF6CF1F93CF936A
:100AD000DF93182FEB0161E00E943505209739F470
:100AE00060E0812FDF91CF911F910C940705CF3FDC
:100AF000D10511F461E0F5CFE12FF0E0E450FA4FB9
:100B0000E491E150E23108F0B3C0F0E08827E45707
:100B1000FA4F8F4F0C943B319E05A605AB05B505EA
:100B2000BF053806C905D105D905E305ED05F7056B
:100B30000606100638061A0624062E0684B58068B6
:100B400084BDC7BDDF91CF911F91089584B58062A8
:100B500084BDC8BDF7CF80918000806880938000FD
:100B6000D0938900C0938800EDCF8091800080628F
:100B700080938000D0938B00C0938A00E3CF809154
:100B80008000886080938000D0938D00C0938C009B
:100B9000D9CF8091B00080688093B000C093B3003B
:100BA000D1CF8091B00080628093B000C093B40038
:100BB000C9CF80919000806880939000D093990075
:100BC000C0939800BFCF8091900080628093900086
:100BD000D0939B00C0939A00B5CF8091900088601D
:100BE00080939000D0939D00C0939C00ABCF8091E8
:100BF000A00080688093A0008091A0008F7B8093EC
:100C0000A000D093A900C093A8009CCF8091A00021
:100C100080628093A000D093AB00C093AA0092CFD3
:100C20008091A00088608093A000D093AD00C09315
:100C3000AC0088CF80912001806880932001D09300
:100C40002901C09328017ECF80912001806280938A
:100C50002001D0932B01C0932A0174CF80912001F1
:100C6000886080932001D0932D01C0932C016ACF1E
:100C7000C038D1050CF03ECF33CF3FB7F894809108
:100C80005D0490915E04A0915F04B091600426B56C
:100C9000A89B05C02F3F19F00196A11DB11D3FBFB4
:100CA000BA2FA92F982F8827BC01CD01620F711D83
:100CB000811D911D42E0660F771F881F991F4A957D
:100CC000D1F708958F929F92AF92BF92CF92DF9209
:100CD000EF92FF920E943D064B015C018AE0C82E14
:100CE000D12CE12CF12C0E943D06681979098A0962
:100CF0009B09683E734081059105A8F321E0C21A63
:100D0000D108E108F10888EE880E83E0981EA11C46
:100D1000B11CC114D104E104F10429F7FF90EF9054
:100D2000DF90CF90BF90AF909F908F9008952FB796
:100D3000F8946091590470915A0480915B049091E9
:100D40005C042FBF0895089508950895AF92BF924F
:100D5000CF92DF92EF92FF920F931F93CF93DF9387
:100D60006C017B018B01040F151FEB015E01AE18B6
:100D7000BF08C017D10759F06991D601ED91FC91D8
:100D80000190F081E02DC6011995892B79F7C501F5
:100D9000DF91CF911F910F91FF90EF90DF90CF9057
:100DA000BF90AF900895FC01538D448D252F30E006
:100DB000842F90E0821B930B541710F0CF96089568
:100DC00001970895FC01918D828D981761F0A28D95
:100DD000AE0FBF2FB11D5D968C91928D9F5F9F735B
:100DE000928F90E008958FEF9FEF0895FC01918D11
:100DF000828D981731F0828DE80FF11D858D90E07E
:100E000008958FEF9FEF0895FC01918D228D892F1A
:100E100090E0805C9F4F821B91098F739927089502
:100E200089EE94E00E94040721E0892B09F420E078
:100E3000822F089582E995E00E94040721E0892B22
:100E400009F420E0822F0895FC01A48DA80FB92F8A
:100E5000B11DA35ABF4F2C91848D90E001968F73E2
:100E60009927848FA689B7892C93A089B1898C9101
:100E7000837080648C93938D848D981306C0028850
:100E8000F389E02D80818F7D80830895EF92FF921A
:100E90000F931F93CF93DF93EC0181E0888F9B8D9D
:100EA0008C8D98131AC0E889F989808185FF15C057
:100EB0009FB7F894EE89FF896083E889F98980817A
:100EC0008370806480839FBF81E090E0DF91CF9149
:100ED0001F910F91FF90EF900895F62E0B8D10E06B
:100EE0000F5F1F4F0F731127E02E8C8D8E110CC0DA
:100EF0000FB607FCFACFE889F989808185FFF5CF25
:100F0000CE010E942407F1CFEB8DEC0FFD2FF11DD8
:100F1000E35AFF4FF0829FB7F8940B8FEA89FB8961
:100F200080818062CFCFCF93DF93EC01888D8823BF
:100F3000B9F0AA89BB89E889F9898C9185FD03C03C
:100F4000808186FD0DC00FB607FCF7CF8C9185FF21
:100F5000F2CF808185FFEDCFCE010E942407E9CF3B
:100F6000DF91CF91089580E090E0892B29F00E94D5
:100F70001A0781110E94000080E090E0892B49F05F
:100F800080E090E0892B29F00E94000081110E94EE
:100F9000000080E090E0892B49F080E090E0892B10
:100FA00029F00E94000081110E94000080E090E082
:100FB000892B29F00E94100781110C9400000895DC
:100FC0002091DF03260F3327331F21323105ECF444
:100FD0002091BF04FC0190E080E0243069F082E0C1
:100FE0000895A091DF032191AC0141545C4FA40FFF
:100FF000B52FB11D2C930196861798F38091DF03CE
:10100000680F6093DF0380E0089581E008951092F7
:10101000BF0481E08093BE041092990461E084E1F2
:101020000E94070561E085E10E940705E9EBF0E019
:1010300080818E7F808380818D7F808388E4809310
:10104000B80085E48093BC000895CF93DF9391E0CE
:101050009093BE038823B9F0C091B800D091BA0034
:101060008091BC008A7B8093BC0060E084E10E9498
:10107000070560E085E10E9407050E940708D093FC
:10108000BA00C093B800DF91CF910895CF92DF925C
:10109000EF92FF920F931F93CF93DF93D091E804C9
:1010A00081E0D13208F09CC0C091E7040E943D0667
:1010B0006B017C018091BF0481116CC082E0809340
:1010C000BF0481E08093BE048FEF8093BD04109233
:1010D000BC04D093BB04A7ECB4E0EBE9F4E080E0FF
:1010E000D8138DC010929A0480919A04CC0FC82B0B
:1010F000C0939A0480919904813009F084C01092C1
:1011000099040E943D066B017C0180919A048093B2
:10111000BB008091C1049091C204A091C304B0911E
:10112000C404892B8A2B8B2BA1F00E943D060091D1
:10113000C1041091C2042091C3043091C4046C19FD
:101140007D098E099F09061717072807390708F434
:1011500042C08091BC0083FDD8CF85EC8093BC0059
:101160000E943D066B017C018091BF04823009F42E
:101170004CC08091BD048F3F09F469C08091BD04CB
:10118000803209F466C08091BD04803309F463C0E5
:1011900084E026C08091C1049091C204A091C30450
:1011A000B091C404892B8A2B8B2B09F483CF0E9426
:1011B0003D060091C1041091C2042091C3043091F6
:1011C000C4046C197D098E099F09061717072807A3
:1011D000390708F06FCF8091C0040E94250885E090
:1011E0001092C6041092E8041092C504DF91CF91CA
:1011F0001F910F91FF90EF90DF90CF9008959D91F8
:1012000091938F5F6DCF85EEA9CF8091C1049091AE
:10121000C204A091C304B091C404892B8A2B8B2BE8
:1012200009F4A2CF0E943D060091C1041091C204AE
:101230002091C3043091C4046C197D098E099F0963
:10124000061717072807390708F08ECFC4CF80E0AC
:10125000C7CF82E0C5CF83E0C3CF0895E091780483
:1012600080917704E81730F4F0E0E758FB4F808175
:1012700090E008958FEF9FEF08959091780480910A
:1012800077042FEF3FEF981748F4E92FF0E0E75885
:10129000FB4F208130E09F5F90937804C90108954F
:1012A000CF92DF92EF92FF920F931F93CF93DF9332
:1012B0007C01CB018A012091C504222389F0EB0136
:1012C0006B01C40ED51ECC15DD0569F06991D701FF
:1012D000ED91FC910190F081E02DC7011995F3CFBC
:1012E000642F0E94E007C801DF91CF911F910F91F9
:1012F000FF90EF90DF90CF900895CF93DF931F92F0
:10130000CDB7DEB769832091C5042223F9F020917F
:10131000E804203258F021E030E0FC0133832283DE
:1013200090E080E00F90DF91CF9108958091C60406
:10133000E82FF0E0E953FB4F998190838F5F809312
:10134000C6048093E80481E090E0ECCF61E0CE0138
:1013500001960E94E007F7CF682F86E895E00C948D
:101360007D0990E080E00895AF92BF92CF92DF9226
:10137000EF92FF920F931F93CF93DF936B017A014C
:10138000EC01C654DC4F28813CE0389F8001399F36
:10139000100D1124A090BF06B12C27FF1FC0FB0128
:1013A0001182108288818F5F888388819801280F3D
:1013B000311D87FD3A95F6012A153B051CF48881FD
:1013C0008C30C4F180819181049680349C4908F46A
:1013D00073C0F60180819181049670C08881980164
:1013E000280F311D87FD3A952A153B05DCF68881CB
:1013F000A801480F511D87FD5A95FA01EE0FFF1FF6
:10140000E40FF51FE15DF94F808186FFCBCF888126
:10141000F801E80FF11D87FDFA95CF01EE0FFF1FD0
:10142000E80FF91FE15DF94F808160E08F730E9442
:101430000705B8CF808191812881A801420F511DF5
:1014400027FD5A959A01FA01EE0FFF1FE20FF31FD5
:10145000E15DF94F21813281820F931FF701918362
:10146000808388819801280F311D87FD3A95F90105
:10147000EE0FFF1FE20FF31FE15DF94F808186FF42
:1014800022C08881080F111D87FD1A95F801EE0F03
:10149000FF1FE00FF11FE15DF94F808161E08F7365
:1014A000DF91CF911F910F91FF90EF90DF90CF9040
:1014B000BF90AF900C94070580E49CE9F7019183FD
:1014C00080838FEF8883DF91CF911F910F91FF90E1
:1014D000EF90DF90CF90BF90AF9008958E579B4FC5
:1014E000FC018081089587EA95E0089583E995E0FD
:1014F0000895FC0187A190A50895AF92BF92CF9265
:10150000DF92EF92FF920F931F93CF93DF93643696
:1015100071054CF0FC01EE57FB4F2081C12CD12C02
:10152000222309F461C0DA016B01EC01BC01655EA4
:101530007D4FED91FC910190F081E02DCA0119954C
:101540008C017E012CEEE21A2DEFF20A2FEFD7016B
:101550002C93FE01EB5EFD4F2EEF208331968083AE
:10156000319690833196890F809580833196C08221
:101570001696DC9245E050E030E020E0C801079686
:101580004817590730F46191260F311D4F5F5F4FA7
:10159000F7CF085F1F4F8C0F9D1FFC01EC5EFD4FC6
:1015A000209520830130B2E01B07A8F468015701A1
:1015B000C5018E199F0980179107B4F48A819B8118
:1015C000F50161915F01DC01ED91FC910190F081E9
:1015D000E02D1995EDCF68EF72E0CE010E94540422
:1015E000CC24CA94DD24DA94C601DF91CF911F91F7
:1015F0000F91FF90EF90DF90CF90BF90AF90089544
:101600000F931F93CF93DF9300D000D000D01F9291
:10161000CDB7DEB78C018EE392E09A8389831B827B
:101620001C821D821E821F82188619861A86D80186
:10163000ED91FC910190F081E02DAE014F5F5F4F85
:101640006AE070E0C80119950E949706F80160876A
:101650007187828793872A960FB6F894DEBF0FBEF4
:10166000CDBFDF91CF911F910F910895CF92DF925F
:10167000EF92FF92DC011D921D921D921C92139716
:10168000FB0130E020E0419150E0022E02C0440F07
:10169000551F0A94E2F7052E000C660B770BCD90D0
:1016A000DD90ED90FC9013974C295D296E297F29E0
:1016B0004D935D936D937C931397285F3F4F20323A
:1016C000310509F7FF90EF90DF90CF900895FC016E
:1016D0004083518312821382089582E795E0089532
:1016E00080E695E008958FE395E008958EE295E019
:1016F00008958DE095E008958DEF94E008958CEDC8
:1017000094E0089583EC94E0089582EA94E00895CB
:101710008CE894E008958BE694E0089582E594E0E7
:101720000895FC01DB018C91828311962C91119715
:1017300030E03483238312968C91382B34832383B7
:1017400083E090E00895DC01FB0112968C911297E2
:10175000808313968C911397818314968C91828346
:1017600083E090E0089581E394E0089581E294E0BD
:1017700008954F925F926F927F928F929F92AF9255
:10178000BF92EF92FF920F931F93CF93DF9300D0FE
:101790001F92CDB7DEB77C018B01FB01808190E009
:1017A000B0E0A0E0F70182839383A483B583FB01BB
:1017B0002181922BF70182839383A483B583FB015C
:1017C0002281A22BF70182839383A483B583FB013B
:1017D0002381B22BF70182839383A483B583FB011A
:1017E000848190E0B0E0A0E0F70186839783A08732
:1017F000B187FB012581922BF70186839783A08710
:10180000B187FB012681A22BF70186839783A087EE
:10181000B187FB012781B22BF70186839783A087CD
:10182000B187FB01808590E0B0E0A0E0F7018287FE
:101830009387A487B587FB012185922BF7018287C7
:101840009387A487B587FB012285A22BF7018287A6
:101850009387A487B587FB012385B22BF701828785
:101860009387A487B587645F7F4FCE0101960E945E
:10187000360B89819A81AB81BC814C015D01F0E11D
:101880008F0E911CA11CB11CA801415F5F4FFA0192
:1018900020E130E02901712C612C481459046A04BC
:1018A0007B0428F4618161932F5F3F4FF3CFF801F0
:1018B000E80FF91F1786F7015787468740960F9064
:1018C0000F900F900F90DF91CF911F910F91FF908C
:1018D000EF90BF90AF909F908F907F906F905F90B0
:1018E0004F9008950F931F93CF93DF93EC018B01DB
:1018F00002960E94B90BF801E80FF91F20812A8B8C
:101900002281438150E070E060E0BA01552744270E
:10191000522B2181422B2481722B4B8B5C8B6D8B44
:101920007E8B2681478150E070E060E0BA01552748
:101930004427522B2581422B2085722B4F8B588FA9
:10194000698F7A8F2285438550E070E060E0BA01AC
:1019500055274427522B2185422B2485722B4B8FF0
:101960005C8F6D8F7E8F2685478550E070E060E04C
:10197000BA0155274427522B2585422B2089722BEB
:101980004F8F58A369A37AA34196DF91CF911F91FE
:101990000F910895CF93DF93DC0116968D919C9162
:1019A0001797FB0116964D915C91179714962D9100
:1019B0003C91159745395105CCF46491240F351F9E
:1019C000E901688316962D913C91179731961496EC
:1019D000CD91DC911597C20FD31F48812F5F3F4FE8
:1019E00017963C932E9316974111DCCF16962D91A6
:1019F0003C9117972539310534F022E030E01996F3
:101A00003C932E93189714962D913C91820F931F1F
:101A1000DF91CF9108950C94CA0C41110C94CA0C1B
:101A2000CB010895AB01FC01A781B085658176816A
:101A3000ED91FC9111970190F081E02DCD01199469
:101A400080E094E0089584EE93E0089583EC93E0C1
:101A5000089580EB93E008954F925F926F927F928A
:101A60008F929F92AF92BF92EF92FF920F931F932C
:101A7000CF93DF9300D01F92CDB7DEB77C018B01EF
:101A8000FB018191BF01F7018283CE0101960E9483
:101A9000360B89819A81AB81BC814C015D01F5E0F7
:101AA0008F0E911CA11CB11CA8014C5F5F4FFA0165
:101AB00025E030E02901712C612C481459046A0496
:101AC0007B0428F4618161932F5F3F4FF3CFF801CE
:101AD000E80FF91F1482F7015483438305960F9092
:101AE0000F900F900F90DF91CF911F910F91FF906A
:101AF000EF90BF90AF909F908F907F906F905F908E
:101B00004F9008958FE893E0089586E793E0089555
:101B10004F925F926F927F928F929F92AF92BF92FD
:101B2000CF92DF92EF92FF920F931F93CF93DF93A9
:101B3000CDB7DEB72C970FB6F894DEBF0FBECDBF82
:101B40007C018B01DB018C9190E0F7019383828310
:101B500011962C91922B938382836E5F7F4FCE01DF
:101B600001960E94360B89809A80AB80BC8024014C
:101B70003501F6E04F0E511C611C711C98012B5F62
:101B80003F4FF90186E090E0AC0170E060E0441561
:101B900055056605770520F4418141930196F4CF00
:101BA000B4016A5F7F4FF801E80DF91D1582D70176
:101BB00015963C932E931497600F711FCE010596D6
:101BC0000E94360BBAE08B0E911C4D805E806F80B8
:101BD0007884C401092C000CAA0BBB0B5C016D01BD
:101BE000A40CB51CC61CD71CF801E80DF91DAF01EB
:101BF000401B510B70E060E04A155B056C057D05EC
:101C000038F42191AF0142505109DA012C93EFCF02
:101C1000480C591CB801640D751DFB0131971082E9
:101C2000C4010197800F911FF70197838683CE012E
:101C300009960E94360B92012C5F3F4F89849A844B
:101C4000AB84BC84A901032E000C660B770B480DF6
:101C5000591D6A1D7B1DF801E20FF31FCF01801B88
:101C6000910BB0E0A0E084179507A607B70728F40A
:101C70008191DF0112978C93F1CFC901880D991DD5
:101C8000F801E80FF91FDF0111971C92215031096B
:101C9000020F131FD70119961C930E9318972181D9
:101CA000428150E070E060E0BA0155274427522B92
:101CB0002081422B2381722BF7014287538764874F
:101CC000758704962C960FB6F894DEBF0FBECDBF75
:101CD000DF91CF911F910F91FF90EF90DF90CF9008
:101CE000BF90AF909F908F907F906F905F904F903C
:101CF000089585E593E0089587E493E00895FC0155
:101D0000DB014C9150E070E060E0428353836483D8
:101D1000758311968C911197582B4283538364835A
:101D2000758312968C911297682B42835383648338
:101D3000758313968C911397782B42835383648316
:101D4000758314964C91149750E070E060E04683E0
:101D500057836087718715968C911597582B46830A
:101D600057836087718716968C911697682B4683E8
:101D700057836087718717968C91782B468357839A
:101D80006087718788E090E00895DC01FB0112967E
:101D90008C911297808313968C911397818314965C
:101DA0008C911497828315968C9115978383169640
:101DB0008C911697848317968C9117978583189624
:101DC0008C911897868319968C91878388E090E090
:101DD000089586E293E0089580E193E00895CF921C
:101DE000DF92EF92FF920F931F93FC01DB01C38000
:101DF0000C2D10E030E020E045E036952795179552
:101E000007954A95D1F70D931D932D933C93139706
:101E10008481C82ED12CF12CE12C53E0CC0CDD1C9C
:101E2000EE1CFF1C5A95D1F7C02AD12AE22AF32AC8
:101E3000CD92DD92ED92FC9213978581082F10E0F0
:101E400030E020E06BE0000F111F221F331F6A9566
:101E5000D1F70C291D292E293F290D931D932D9370
:101E60003C931397468150E070E060E083E1440FBB
:101E7000551F661F771F8A95D1F744275527687726
:101E80007727042B152B262B372B0D931D932D9382
:101E90003C931397478150E070E060E094E0440F7A
:101EA000551F661F771F9A95D1F7407F5770662799
:101EB0007727C680D12CF12CE12C84E0F694E794AE
:101EC000D794C7948A95D1F74C295D296E297F292B
:101ED0004115510561057105A1F040585340610954
:101EE000710997E1440F551F661F771F9A95D1F727
:101EF000402B512B622B732B4D935D936D937C93F1
:101F00001397478150E070E060E0742F66275527F3
:101F1000442744275527662770780D911D912D91F0
:101F20003C911397402B512B622B732B4D935D9358
:101F30006D937C93139788E090E01F910F91FF9031
:101F4000EF90DF90CF9008959B01BC016E5F7F4FB3
:101F5000C9010C94EF0EEF92FF920F931F93CF9352
:101F6000DF938C017B01BC016E5F7F4FC7010E9434
:101F7000EF0EEC01B8016A5F7F4FC7018C0F9D1F08
:101F80000E94EF0EC80FD91FB801665F7F4FC701CF
:101F90008C0F9D1F0E94EF0EC80FD91FB801625F02
:101FA0007F4FC7018C0F9D1F0E94EF0E8C0F9D1F4E
:101FB000DF91CF911F910F91FF90EF900895CF92F5
:101FC000DF92EF92FF920F931F93CF93DF937C01E9
:101FD0008B0102960E94B90BEC01B801680F791FC2
:101FE000C70142960E94910BC80FD91FB701695EC5
:101FF0007F4FC8018C0F9D1F0E94EF0EC80FD91F85
:10200000B701655E7F4FC8018C0F9D1F0E94EF0EC8
:10201000C80FD91FB701615E7F4FC8018C0F9D1F8C
:102020000E94EF0EC80FD91F670183E2C80ED11CB2
:10203000E7E4EE0EF11CB601C8018C0F9D1F0E9453
:10204000EF0EC80FD91FF4E0CF0ED11CCE14DF0461
:1020500091F7F801EC0FFD1F8081F6018083CE011E
:102060000196DF91CF911F910F91FF90EF90DF903C
:10207000CF900895EF92FF920F931F93CF93DF932A
:102080008C017B01BC016E5F7F4FC7010E94EF0E88
:10209000EC01B8016A5F7F4FC7018C0F9D1F0E9442
:1020A000EF0EC80FD91FB801665F7F4FC7018C0FB5
:1020B0009D1F0E94EF0E8C0F9D1FDF91CF911F91EE
:1020C0000F91FF90EF900895AF92BF92CF92DF9261
:1020D000EF92FF920F931F93CF93DF938C017B01BD
:1020E00002960E94B90BEC01B701680F791FC80175
:1020F00042960E94AB0FC80FD91F680184E2C80E38
:10210000D11C580188E4A80EB11CB601C7018C0F80
:102110009D1F0E94EF0EC80FD91F84E0C80ED11C6E
:10212000CA14DB0491F7B7016C0F7D1FC6010E9432
:102130003A10C80FD91F680186E5C80ED11C580196
:102140008AE7A80EB11CB601C7018C0F9D1F0E9423
:10215000EF0EC80FD91F84E0C80ED11CCA14DB04CF
:1021600091F7B7016C0F7D1FC6010E943A10C80F8E
:10217000D91F680188E8C80ED11C04551F4FB6014D
:10218000C7018C0F9D1F0E94EF0EC80FD91F84E05E
:10219000C80ED11CC016D10691F7CE01DF91CF91A8
:1021A0001F910F91FF90EF90DF90CF90BF90AF9075
:1021B0000895EF92FF920F931F93CF93DF937C01CB
:1021C000EB0102960E943A108C01BE01680F791F44
:1021D000C70140960E943A10800F911FDF91CF9166
:1021E0001F910F91FF90EF9008950F931F93CF933E
:1021F000DF938C01EC012796CE010E94D910D80103
:102200009596ED91FC91CE01DF91CF911F910F91A9
:1022100019948F929F92AF92BF92CF92DF92EF92DA
:10222000FF92CF93DF93EC014A015B01DB01CA010E
:1022300047E1B595A795979587954A95D1F7992741
:10224000AA27BB270097A105B10521F080589C4F14
:10225000AF4FBF4F188219821A82B501A40125E041
:10226000440F551F661F771F2A95D1F74B83B50181
:10227000A40133E075956795579547953A95D1F741
:102280004C83B501A401EBE075956795579547958B
:10229000EA95D1F74D83B501A401F3E175956795F2
:1022A00057954795FA95D1F74F706C017D0124E061
:1022B000CC0CDD1CEE1CFF1C2A95D1F74C294E835B
:1022C0006C017D0134E0F594E794D794C7943A9576
:1022D000D1F720E030E0A901C501B4010E943F2FF1
:1022E00087FD0EC0CF8288E090E0DF91CF91FF9014
:1022F000EF90DF90CF90BF90AF909F908F90089518
:102300008C2D80688F83EFCF9B01FC01428153812C
:1023100064817581C9010C940911EF92FF920F93AA
:102320001F93CF93DF937C018B01FC01428153818A
:1023300064817581C8010E940911EC01F701468191
:10234000578160857185C8018C0F9D1F0E940911FE
:10235000C80FD91FF7014285538564857585C8016B
:102360008C0F9D1F0E940911C80FD91FF7014685C8
:10237000578560897189C8018C0F9D1F0E940911C2
:102380008C0F9D1FDF91CF911F910F91FF90EF90C8
:102390000895EF92FF920F931F93CF93DF937C01E9
:1023A0008B01FC014281538164817581C8010E94C7
:1023B0000911EC01F7014681578160857185C801DB
:1023C0008C0F9D1F0E940911C80FD91FF70142856C
:1023D000538564857585C8018C0F9D1F0E94091166
:1023E0008C0F9D1FDF91CF911F910F91FF90EF9068
:1023F0000895EF92FF920F931F93CF93DF937C0189
:10240000EB0102960E94C9118C01BE01680F791F71
:10241000C70140960E94C911800F911FDF91CF9193
:102420001F910F91FF90EF9008958F929F92AF921E
:10243000BF92CF92DF92EF92FF920F931F93CF93B1
:10244000DF937C01D62F0E943D064B015C018091F9
:10245000BF04811167C0CD2F81E08093BF048093BA
:10246000BE049FEF9093BD041092BC049D0F909307
:10247000BB0480939A0480919A04EE0CFF1C8E2971
:1024800080939A0480919904813009F083C010925E
:1024900099040E943D066B017C0180919A0480930F
:1024A000BB008091C1049091C204A091C304B0917B
:1024B000C404892B8A2B8B2BA1F00E943D068090AF
:1024C000C1049090C204A090C304B090C4046C19DD
:1024D0007D098E099F0986169706A806B90608F495
:1024E00042C08091BC0083FDD8CF85EC8093BC00B6
:1024F0000E943D066B017C018091BF04813009F48C
:102500004BC08091BC048D1710F4C091BC04EBE962
:10251000F4E0A9E7B4E080E08C1751F191919D932C
:102520008F5FFACF8091C1049091C204A091C3043F
:10253000B091C404892B8A2B8B2B09F488CF0E947D
:102540003D060091C1041091C2042091C304309152
:10255000C404681979098A099B090617170728070F
:10256000390708F074CF8091C0040E942508C0E0AC
:1025700010927804C09377048C2FDF91CF911F9134
:102580000F91FF90EF90DF90CF90BF90AF909F9012
:102590008F90089585EEAACF8091C1049091C204D6
:1025A000A091C304B091C404892B8A2B8B2B09F40E
:1025B000A3CF0E943D068090C1049090C204A090D9
:1025C000C304B090C4046C197D098E099F09861656
:1025D0009706A806B90608F08FCFC5CF0F931F93B3
:1025E000CF93DF9300D000D01F921F92CDB7DEB7FC
:1025F00088E60E9443048BE190E00E94AC090E94AF
:10260000460888E60E94430468E070E088E690E0AF
:102610000E9415128E010F5F1F4F909177048091D9
:102620007804981741F086E895E00E943D09F8018A
:1026300081938F01F2CF0E9446086B817C817627BF
:10264000672776278091750490917604681B790B33
:10265000072E000C880B990B0E94EE2F60936504E7
:102660007093660480936704909368046D817E8103
:102670007627672776278091630490916404681B0E
:10268000790B072E000C880B990B0E94EE2F60939C
:10269000690470936A0480936B0490936C046F8157
:1026A0007885762767277627809161049091620468
:1026B000681B790B072E000C880B990B0E94EE2FDC
:1026C00060936D0470936E0480936F049093700414
:1026D00069817A81762767277627072E000C880B79
:1026E000990B0E94EE2F6093710470937204809393
:1026F00073049093740485E694E028960FB6F894DA
:10270000DEBF0FBECDBFDF91CF911F910F91089516
:102710000F931F9390E0FC01EE55F94F6491FC017B
:10272000E45AF94FE491F0E0EE0FFF1FEE5BF94F32
:102730008591949100E412E42FE030E0462F0E944E
:10274000A221611571058105910529F06F5F7F4F09
:102750008F4F9F4F9F701F910F91089585ED80932C
:10276000BC008091C1049091C204A091C304B091B7
:10277000C4040796A11DB11D23E0B695A7959795B2
:1027800087952A95D1F72091BC0024FD03C01092B3
:10279000BF0408954091C1045091C2046091C304E4
:1027A0007091C404452B462B472B69F30097A10574
:1027B000B10541F02AE22A95F1F700C00197A1097D
:1027C000B109E1CF8091C0040C942508EF92FF92EB
:1027D0000F931F93CF93DF938C01EB01FC01828158
:1027E00088838381898384818A8385818B838681A1
:1027F0008C8387818D8380858E8381858F8382857D
:1028000088878385898784858A8785858B87A68540
:10281000B785FD0101900020E9F731977F01EA1AA1
:10282000FB0AA70170E060E0CE010C960E94670BE6
:10283000F80166857785A701CE0140960E945D3339
:10284000C7014096DF91CF911F910F91FF90EF90BC
:1028500008950F931F93CF93DF938C01EB010296A2
:102860000E94E613F8012289C80FD91F28835389D3
:1028700044893589268959834A833B832C83578928
:10288000408D318D228D5D834E833F832887538D0C
:10289000448D358D268D59874A873B872C87578DE8
:1028A00040A131A122A15D874E873F87288B4196A9
:1028B000DF91CF911F910F910895AF92BF92CF9268
:1028C000DF92EF92FF920F931F93CF93DF938C01D0
:1028D0007B0102960E94E613EC01B701680F791F95
:1028E000C80142960E948D11C80FD91F680184E269
:1028F000C80ED11C5801E8E4AE0EB11CF60141919E
:102900005191619171916F01C7018C0F9D1F0E94C0
:102910000911C80FD91FCA14DB0481F7B7016C0F66
:102920007D1FC6010E94C911C80FD91F6801F6E5B5
:10293000CF0ED11C58018AE7A80EB11CF6014191B7
:102940005191619171916F01C7018C0F9D1F0E9480
:102950000911C80FD91FAC14BD0481F7B7016C0F62
:102960007D1FC5010E94C911C80FD91F6801F8E871
:10297000CF0ED11C04551F4FF60141915191619129
:1029800071916F01C7018C0F9D1F0E940911C80F23
:10299000D91FC016D10681F7CE01DF91CF911F91CB
:1029A0000F91FF90EF90DF90CF90BF90AF90089580
:1029B000CF92DF92EF92FF920F931F93CF93DF930B
:1029C0008C017B0102960E94E613EC01F701E80FEF
:1029D000F91FD80154968C915497808355968C9109
:1029E0005597818356968C91569782832396579656
:1029F0004D915D916D917C915A97C7018C0F9D1FF0
:102A00000E940911C80FD91FF801438D548D658D9F
:102A1000768DC7018C0F9D1F0E940911C80FD91F09
:102A2000D8015F964D915D916D917C919297C70110
:102A30008C0F9D1F0E940911C80FD91F6801B3E2B6
:102A4000CB0ED11C095B1F4FF60141915191619151
:102A500071916F01C7018C0F9D1F0E940911C80F52
:102A6000D91FC016D10681F7D6018C91F701EC0F62
:102A7000FD1F8083CE010196DF91CF911F910F91B1
:102A8000FF90EF90DF90CF9008954F925F926F92FA
:102A90007F928F929F92AF92BF92CF92DF92EF92EE
:102AA000FF920F931F93CF93DF93EC017B018A81F9
:102AB000FB0180838B8181838C8182838D818383E1
:102AC0003496412C512C320104E010E09F012F5F1D
:102AD0003F4FCF010296DF011396A8010C5F1F4FF5
:102AE0008A809B80AC80BD80481459046A047B04B2
:102AF000C8F4AA85BB85A40FB51F14974C911196F5
:102B00002C91119712969C91129713968C91408359
:102B10002183928383838FEF481A580A680A780AC0
:102B20003496D4CF4C8540834D85F90140832E8562
:102B3000FC0120838F858C93F701E00FF11F412C5E
:102B4000512C3201AF019F012F5F3F4FCF01029601
:102B5000DF0113960C5F1F4F8C849D84AE84BF846D
:102B6000481459046A047B04D8F4CF01841B950BE4
:102B7000AC89BD89A80FB91F3C9111962C91119772
:102B800012969C91129713968C9130832183928395
:102B900083838FEF481A580A680A780A3496D3CF8D
:102BA0004E8940834F89F9014083288DFC012083A1
:102BB000898D8C93412C512C32018E899F89A88D4F
:102BC000B98D481659066A067B0680F55201AA0C93
:102BD000BB1CEC8DFD8DEA0DFB1DA081B181FD01BB
:102BE00001900020E9F731976F01CA1ADB0AA601AC
:102BF00070E060E0C701800F911F0E94670B0C5FBF
:102C00001F4F8C8D9D8DA80EB91EF50160817181BD
:102C1000A601C701800F911F0E945D330C0D1D1D81
:102C2000FFEF4F1A5F0A6F0A7F0AC7CFC801DF9113
:102C3000CF911F910F91FF90EF90DF90CF90BF90B9
:102C4000AF909F908F907F906F905F904F9008957E
:102C5000EF92FF920F931F93CF93DF938C017B0131
:102C6000DC0112962C911297FB012193CF01139650
:102C7000ED91FC91EF0109900020E9F72197CE1B1F
:102C8000DF0BAE0170E060E00E94670BD801139685
:102C90006D917C91AE01C70105960E945D33CE0116
:102CA0000596DF91CF911F910F91FF90EF900895BE
:102CB000CF92DF92EF92FF920F931F93CF93DF9308
:102CC0006C01EB01DC0112968C91129788831396AC
:102CD0008C91139789831496ED91FC91DF010D90EF
:102CE0000020E9F78D01015011090E1B1F0BA801EF
:102CF00070E060E0CE0102960E94670BF6016481ED
:102D00007581A801CE0106960E945D33C801069622
:102D1000F601A681B781FD0101900020E9F7319706
:102D20007F01EA1AFB0AA70170E060E08C0F9D1F8B
:102D30000E94670B065F1F4FD60116966D917C911E
:102D4000A701CE01800F911F0E945D330E0D1F1D44
:102D5000F601A085B185FD0101900020E9F73197CA
:102D60007F01EA1AFB0AA70170E060E0CE01800F44
:102D7000911F0E94670B0C5F1F4FD60118966D9133
:102D80007C91A701CE01800F911F0E945D33C70186
:102D9000800F911FF6016285438534852585C80F14
:102DA000D91F688349833A832B830496DF91CF919F
:102DB0001F910F91FF90EF90DF90CF900895FC014D
:102DC000848195810C94F331CF93DF93EC010E94C1
:102DD000DF16CE01DF91CF910C94F3312F923F9209
:102DE0004F925F926F927F928F929F92AF92BF921B
:102DF000CF92DF92EF92FF920F931F93CF93DF93C7
:102E0000CDB7DEB72E970FB6F894DEBF0FBECDBF9D
:102E10008C016B01DB018D909D90AD90BC90FC010D
:102E200082819381A481B58188159905AA05BB0586
:102E300070F4B401660F771F660F771F8285938544
:102E40000E947C32D8011B969C938E931A97F801AE
:102E500082829382A482B582C60140E050E0BA012A
:102E6000A4E0EA2EF12C98012A5F3F4FDC01159671
:102E7000EC91159716964C901697512C712C612C4D
:102E80003201552444245E2A1496EC9114974E2A5C
:102E90001796EC917E2AD7011701E4E02E0E311C23
:102EA00071010496F80182809380A480B580481552
:102EB00059056A057B05A8F44682578260867186AB
:102EC0001497A284B384AA0DBB1DE4E0BE2EF901C1
:102ED00001900D92BA94E1F74F5F5F4F6F4F7F4FB4
:102EE000C5CF84859585A685B78584159505A605E6
:102EF000B70570F4B201660F771F660F771F8489DC
:102F000095890E947C32D80155969C938E93549754
:102F1000F8014486558666867786C601820D931D24
:102F2000412C512C32011C019801205F3F4FDC01E4
:102F300011966C91119712968C901297912CB12C3E
:102F4000A12C540199248824962A6C91862A1396E0
:102F50006C91B62AB4E0EB0EF11CF801448555855E
:102F6000668577854416550666067706C0F4808A1E
:102F7000918AA28AB38ABC0162197309A489B589AE
:102F8000A60FB71F64E0F90101900D926A95E1F771
:102F9000BFEF4B1A5B0A6B0A7B0A0496C8CF86897F
:102FA0009789A08DB18D88159905AA05BB0560F498
:102FB000B401660F771F848D958D0E947C32D801F5
:102FC0005D969C938E935C97F801868A978AA08E73
:102FD000B18E412C512C32011801FAE12F0E311C17
:102FE000F80186899789A08DB18D481659066A0621
:102FF0007B0608F05CC0B6016E0D7F1DCE01019608
:103000000E94360B97012C5F3F4F3E872D878980AA
:103010009A80AB80BC80C901032E000CAA0BBB0BAD
:10302000AC01BD01480D591D6A1D7B1D49875A879A
:103030006B877C87F901EC0DFD1D9F012C193D0963
:10304000B90190E080E029853A854B855C8562175F
:1030500073078407950728F42191DF0112972C93B9
:10306000ECCFED84FE84E80CF91CF601EE0DFF1D9B
:10307000319710828D859E8501978C0D9D1DD801FD
:103080005B969C938E935A97C201880F991F5C960A
:10309000ED91FC91E80FF91FD1018D919C919183E5
:1030A0008083BFEF4B1A5B0A6B0A7B0A99CFC7017B
:1030B0002E960FB6F894DEBF0FBECDBFDF91CF9135
:1030C0001F910F91FF90EF90DF90CF90BF90AF9046
:1030D0009F908F907F906F905F904F903F902F9038
:1030E00008952F923F924F925F926F927F928F92AC
:1030F0009F92AF92BF92CF92DF92EF92FF920F9387
:103100001F93CF93DF93CDB7DEB7E0970FB6F89458
:10311000DEBF0FBECDBF8C010E9497062B013C0184
:10312000980129573B4F3E8F2D8FF9018081918166
:10313000A281B381A3019201281B390B4A0B5B0BBF
:10314000DA01C901893F9A42A105B10510F035970E
:103150001082480148E8841A4BEF940AD4018D91FB
:103160009C91892B79F0F801E557FB4F8081918183
:10317000A281B38184159505A605B70518F4F4015D
:1031800011821082980120583B4F3A8F298FA80155
:1031900044585B4F5C8F4B8F180154E1250E311C56
:1031A000C8018E579B4F9AA389A3D801A057BB4F44
:1031B000B8A7AFA3F801E157FB4FFAA7E9A7580159
:1031C000F6E8AF1AFBEFBF0A2250310938A32F8F60
:1031D000A80145575B4F5CA74BA7D301C20144969A
:1031E000A11DB11D8DA79EA7AFA7B8ABD8011296A0
:1031F0008D919C91DC01ED91FC910284F385E02D91
:1032000019959C0197FD01C3E98DFA8D808191810B
:10321000820F931F91838083D4014D915C9111970C
:1032200047305105E1F4EF8DF8A180819181AC0127
:103230004F5F5F4F51834083800F911FDC01549695
:103240002C93F50180819181019791838083892B53
:1032500069F688E090E0D4018D939C93C7CF411527
:10326000510509F03FC02F3F310589F481E090E01E
:10327000F401918380832DA53EA54FA558A9ABA548
:10328000BCA52D933D934D935C931397AFCF0E94B4
:1032900097066419750986099709663071058105D5
:1032A000910508F4A3CFF801EE57FB4F10828EEF83
:1032B0009FEFE0960FB6F894DEBF0FBECDBFDF9153
:1032C000CF911F910F91FF90EF90DF90CF90BF9023
:1032D000AF909F908F907F906F905F904F903F90B6
:1032E0002F9008954130510581F482E090E02E3F07
:1032F000310571F11D921C92E9A1FAA18081811121
:1033000075CFC8010E94000B71CF4230510589F47E
:10331000D5012D933C93EF8DF8A11182108283E0AB
:1033200090E0D4018D939C93E98DFA8D31832083B5
:103330005DCF4330510581F4322F2227D5018D9185
:103340009C911197280F391F2D933C9384E090E0B6
:10335000F401918380834ACF4430510571F460E0D9
:1033600071E00E9427318F3F910519F485E090E0CC
:1033700072CFF4011182108239CF4530510571F4BA
:10338000AB8DBC8D2D933C9386E090E0F40191834E
:103390008083A98DBA8D2D933C9328CF463051055B
:1033A00091F4322F2227EB8DFC8D80819181280FA3
:1033B000391F3183208387E090E08D939C93F50142
:1033C0008081918144CF4830510509F00FCF1D9283
:1033D0001C9260E071E00E9427318F3F910509F057
:1033E00005CFAB8DBC8DED91FC91309709F03EC1BE
:1033F000C8010E94000B86E292E09A8389831C82B6
:103400001B8280E393E09E838D8398878F839A87C6
:1034100089871B861C861D861E866801BCEECB1A1A
:10342000BBEFDB0A7801EAEBEE1AEBEFFE0A22E3D0
:10343000222E22E0322ED601AD90BC90A114B10410
:1034400009F470C01A8A198A388A2F861E8A1D8A42
:1034500086E990E00E9457319C8B8B8BFC01108297
:103460008B569F4FDC011C92F501858196819C83D0
:103470008B83608171814281CE010F960E940D0D78
:103480009E838D83D601ED91FC9183819481DC0133
:10349000ED91FC910480F581E02D1995BC01CE01E0
:1034A0000F960E94CA0C98878F83D601ED91FC91EC
:1034B00083819481DC01ED91FC910680F781E02D00
:1034C0001995BC01CE010F960E94CA0C9A87898774
:1034D00020E032E040E050E02B873C874D875E875C
:1034E000D601ED91FC9161857285D801ED91FC9139
:1034F0000190F081E02DAE014F5F5F4FC80119953B
:1035000089899A8961E373E08130910521F00297FE
:1035100029F465E473E0C8010E945404CE010F96BB
:103520000E94DF16B2E0CB0ED11CEC14FD0409F0B2
:1035300082CF92E3A92E92E0B92EF701C080D1800C
:10354000C114D10409F477C01A8A198AB88AAF86DF
:103550001E8A1D8A86E990E00E9457319C8B8B8BD6
:10356000DC011C928B569F4FFC011082D6011296F3
:103570008D919C9113979C838B8314966D917C9174
:10358000159716964C91CE010F960E940D0D9E83B5
:103590008D83F70180819181DC01ED91FC910480A4
:1035A000F581E02D1995BC01CE010F960E94CA0C41
:1035B00098878F83F70180819181DC01ED91FC91E7
:1035C0000680F781E02D1995BC01CE010F960E946F
:1035D000CA0C9A87898720E032E040E050E02B87D0
:1035E0003C874D875E87D801ED91FC91C080D180EA
:1035F000F70180819181DC01ED91FC910280F381E2
:10360000E02D1995AE014F5F5F4FBC01C801F60177
:10361000199589899A8961E373E08130910521F0D8
:10362000029729F465E473E0C8010E945404CE01B6
:103630000F960E94DF16F2E0EF0EF11C8E149F042D
:1036400009F07BCFF801EE57FB4F81E08083319684
:103650004082518262827382AD8DBE8D4D925D92A9
:103660006D927C9213978FEF9FEF23CEEA30F10596
:1036700009F0A3C08EE392E09A8389831B821C82A7
:103680001D821E821F82188619861A860E9497063E
:10369000F801C084D184E284F3849B01AC012C192D
:1036A0003D094E095F0969017A01B101CE01019618
:1036B0000E947F0EC701B60128EE33E040E050E0E3
:1036C0000E94A12E69017A019B01AC018B819C8132
:1036D000AD81BE818C0D9D1DAE1DBF1D8B839C8356
:1036E000AD83BE8360E472E48FE090E00E940B3112
:1036F000CF80D884E984FA84DC01CB018C0D9D1D38
:10370000AE1DBF1D8F839887A987BA870E94970631
:10371000CF80D884E984FA8436E3D31A35E6E30A05
:1037200034ECF30A28EE33E040E050E00E94A12E92
:103730002BA33CA34DA35EA39B01AC0160E472E408
:103740008FE090E00E940B31A7019601261B370BFA
:10375000480B590BCA01B901CB80DC80ED80FE809B
:1037600031E0C31AD108E108F1082BA13CA14DA119
:103770005EA1C21AD30AE40AF50A20E03AEC4AE94B
:103780005BE30E94A12E2C0D3D1D4E1D5F1DD80137
:103790001C962D933D934D935C931F97F801608B7E
:1037A000718B828B938B0E949706AD8DBE8D6D932E
:1037B0007D938D939C93139719CDE630F10551F4C9
:1037C000B1018FA198A50E94EE1681E0E9A5FAA5A6
:1037D00080830CCDEB30F10521F4A9A1BAA11C9294
:1037E00005CDE154FE4FEE0FFF1FE00FF11F80816A
:1037F0009181009709F4FACCDC01ED91FC910190E4
:10380000F081E02DB1011995F1CCF801EE57FB4F95
:103810008081882301F17801BDE7EB1ABBEFFB0A39
:10382000F70180819181A281B381A3019201281BBC
:10383000390B4A0B5B0BDA01C901853C9940A105A4
:10384000B10548F0C8010E94000BD7014D925D926E
:103850006D927C92139790E080E02BCD4F925F9217
:103860006F927F928F929F92AF92BF92CF92DF9290
:10387000EF92FF92CF93DF9383E10E94DE04C1E0D9
:10388000D0E0892B11F0D0E0C0E082E10E94DE049C
:10389000E2E0F0E0892B11F0F0E0E0E0CE2BDF2B4E
:1038A00083E00E94DE04E4E0F0E0892B11F0F0E018
:1038B000E0E0CE2BDF2B82E00E94DE04E8E0F0E0C7
:1038C000892B11F0F0E0E0E0EC2BFD2B3197EF308D
:1038D000F105A8F48827E059F34E8F4F0C943B3143
:1038E000C01CCD1CD21CD71CDC1CE11CE61CEB1C34
:1038F000F01CF51CFA1CFF1C041D091D0E1D109266
:10390000B6031092B7031092B8031092B9038090D7
:10391000B6039090B703A090B803B090B90320917C
:10392000B2033091B3034091B4035091B503C50184
:10393000B4010E94D22E6B017C014090AE035090E6
:10394000AF036090B0037090B10320E030E040E836
:103950005FE30E943F2F882351F020E030E040E7F2
:1039600051ECC701B6010E943F2F81115CC020E0DD
:1039700030E040E85FE3C301B2010E94D32E6FC084
:1039800080E090E0A0E8BFE38093B6039093B70394
:10399000A093B803B093B903BACF80E090E0A0E160
:1039A000B1E4F2CF80E090E0A0E0B1E4EDCF80E0C0
:1039B00090E0A0E5B1E4E8CF80E090E0A0E8B0E4DA
:1039C000E3CF80E090E0A0E4B1E4DECF80E090E0DF
:1039D000A0EAB0E4D9CF80E090E0A0E7B1E4D4CF92
:1039E00080E090E0A0E0B0E4CFCF80E090E0A0E203
:1039F000B1E4CACF80E090E0A0EEB0E4C5CF80E0B3
:103A000090E0A0E6B1E4C0CF80E090E0A0E4B0E4B4
:103A1000BBCF80E090E0A0E3B1E4B6CF80E090E0DF
:103A2000A0ECB0E4B1CF20E030E040E85FEBC701AC
:103A3000B6010E943F2F882351F020E030E040E79C
:103A400051E4C701B6010E943F2F811138C020E028
:103A500030E040E85FE3C301B2010E94D22E6093E0
:103A6000AE037093AF038093B0039093B103809241
:103A7000B2039092B303A092B403B092B5038092C4
:103A8000470990924809A0924909B0924A0965E411
:103A900079E08AE399E00E94120D84E799E0DF91D2
:103AA000CF91FF90EF90DF90CF90BF90AF909F901D
:103AB0008F907F906F905F904F900C947118A3013E
:103AC0009201C701B60159CF1F920F920FB60F9204
:103AD00011242F933F938F939F93AF93BF93809124
:103AE000590490915A04A0915B04B0915C04309108
:103AF000580423E0230F2D3758F50196A11DB11D61
:103B0000209358048093590490935A04A0935B0423
:103B1000B0935C0480915D0490915E04A0915F0479
:103B2000B09160040196A11DB11D80935D04909336
:103B30005E04A0935F04B0936004BF91AF919F9126
:103B40008F913F912F910F900FBE0F901F9018955E
:103B500026E8230F0296A11DB11DD2CF1F920F920E
:103B60000FB60F9211240BB60F922F933F934F93E2
:103B70005F936F937F938F939F93AF93BF93EF93D5
:103B8000FF93E0910E02F0910F021995FF91EF91D2
:103B9000BF91AF919F918F917F916F915F914F9165
:103BA0003F912F910F900BBE0F900FBE0F901F9063
:103BB00018951F920F920FB60F9211240BB60F9209
:103BC0002F933F934F935F936F937F938F939F9325
:103BD000AF93BF93EF93FF93E0910C02F0910D022E
:103BE0001995FF91EF91BF91AF919F918F917F9127
:103BF0006F915F914F913F912F910F900BBE0F905E
:103C00000FBE0F901F9018951F920F920FB60F9234
:103C100011240BB60F922F933F934F935F936F93A3
:103C20007F938F939F93AF93BF93EF93FF93E09115
:103C30000202F09103021995FF91EF91BF91AF91AC
:103C40009F918F917F916F915F914F913F912F91B4
:103C50000F900BBE0F900FBE0F901F9018951F92E4
:103C60000F920FB60F9211240BB60F922F933F9322
:103C70004F935F936F937F938F939F93AF93BF9374
:103C8000EF93FF93E0910002F09101021995FF91EB
:103C9000EF91BF91AF919F918F917F916F915F91C4
:103CA0004F913F912F910F900BBE0F900FBE0F9031
:103CB0001F9018951F920F920FB60F9211240BB6FA
:103CC0000F922F933F934F935F936F937F938F93B5
:103CD0009F93AF93BF93EF93FF93E0910A02F0910C
:103CE0000B021995FF91EF91BF91AF919F918F9129
:103CF0007F916F915F914F913F912F910F900BBEEC
:103D00000F900FBE0F901F9018951F920F920FB635
:103D10000F9211240BB60F922F933F934F935F9303
:103D20006F937F938F939F93AF93BF93EF93FF9383
:103D3000E0910802F09109021995FF91EF91BF916E
:103D4000AF919F918F917F916F915F914F913F9133
:103D50002F910F900BBE0F900FBE0F901F901895D4
:103D60001F920F920FB60F9211240BB60F922F9342
:103D70003F934F935F936F937F938F939F93AF93F3
:103D8000BF93EF93FF93E0910602F091070219951C
:103D9000FF91EF91BF91AF919F918F917F916F9123
:103DA0005F914F913F912F910F900BBE0F900FBEDF
:103DB0000F901F9018951F920F920FB60F9211241B
:103DC0000BB60F922F933F934F935F936F937F9315
:103DD0008F939F93AF93BF93EF93FF93E091040270
:103DE000F09105021995FF91EF91BF91AF919F91CD
:103DF0008F917F916F915F914F913F912F910F9094
:103E00000BBE0F900FBE0F901F9018951F920F9230
:103E10000FB60F9211240BB60F922F933F934F932F
:103E20005F936F937F938F939F93AF93BF93EF9322
:103E3000FF9389EE94E00E942407FF91EF91BF91D8
:103E4000AF919F918F917F916F915F914F913F9132
:103E50002F910F900BBE0F900FBE0F901F901895D3
:103E60001F920F920FB60F9211240BB60F922F9341
:103E70008F939F93EF93FF93E091F904F091FA04ED
:103E80008081E091FF04F091000582FD1DC09081CA
:103E9000809102058F5F8F7320910305821741F097
:103EA000E0910205F0E0E751FB4F958F809302050A
:103EB000FF91EF919F918F912F910F900BBE0F90DB
:103EC0000FBE0F901F9018958081F2CF1F920F9216
:103ED0000FB60F9211240BB60F922F933F934F936F
:103EE0005F936F937F938F939F93AF93BF93EF9362
:103EF000FF9382E995E00E942407FF91EF91BF9123
:103F0000AF919F918F917F916F915F914F913F9171
:103F10002F910F900BBE0F900FBE0F901F90189512
:103F20001F920F920FB60F9211240BB60F922F9380
:103F30008F939F93EF93FF93E091A205F091A305D8
:103F40008081E091A805F091A90582FD1DC09081B6
:103F50008091AB058F5F8F732091AC05821741F084
:103F6000E091AB05F0E0EE56FA4F958F8093AB05EC
:103F7000FF91EF919F918F912F910F900BBE0F901A
:103F80000FBE0F901F9018958081F2CF1F920F9255
:103F90000FB60F9211240BB60F922F933F934F93AE
:103FA0005F936F937F938F939F93AF93BF93EF93A1
:103FB000FF938091B900887F803609F44DC008F0E6
:103FC00040C0883209F4A9C028F5803109F49DC0A9
:103FD000C8F4882309F4FBC0883009F496C0FF9127
:103FE000EF91BF91AF919F918F917F916F915F9171
:103FF0004F913F912F910F900BBE0F900FBE0F90DE
:104000001F901895883109F488C0803241F7809359
:10401000BD0414C0803409F49DC040F48033B9F36A
:104020008833E9F68093BD0485ECB0C0803509F48F
:1040300085C0883509F496C0883489F60E94AE138D
:10404000CECF883909F48CC038F5883729F050F480
:10405000883611F0803719F683E08093BF04109200
:10406000010457C0883809F47BC0803919F08038C2
:1040700009F0B5CF80910104803208F071C0E09161
:10408000010481E08E0F809301048091BB00F0E079
:10409000EF51FC4F80833DC0803B39F0E0F4803A23
:1040A00009F479C0883A09F09ACF84E08093BF047C
:1040B0001092E0031092DF03E0910A04F0910B04E8
:1040C00019958091DF0381110FC081E08093DF0398
:1040D0001092BF0309C0803C09F4A6CF883C09F4C4
:1040E000A3CF883B09F07BCFE091E00381E08E0F06
:1040F0008093E003F0E0E154FC4F80818093BB00AB
:104100009091E0038091DF0329C080919A0480930D
:10411000BB0085EC8093BC0062CF9091BC04809181
:10412000BB04981758F5E091BC0481E08E0F809392
:10413000BC04F0E0E556FB4F8081E9CFE091BC0480
:1041400081E08E0F8093BC048091BB00F0E0E556C7
:10415000FB4F80839091BC048091BB049817C8F2F8
:1041600085E8D8CFE091BC0481E08E0F8093BC0439
:104170008091BB00F0E0E556FB4F80838091BE0448
:1041800081115CCF81E08093990484EA8093BC0024
:104190001092BF0424CF85EC8093BC001092BF0422
:1041A00080910104803230F4E0910104F0E0EF519D
:1041B000FC4F10826091010470E0E0910804F091DE
:1041C000090481EE93E019951092010408CF109232
:1041D000BD0434CF1F920F920FB60F9211240BB66D
:1041E0000F922F933F934F935F936F937F938F9390
:1041F0009F93AF93BF93EF93FF9348E251E064E244
:1042000071E090E080E00E94B409FF91EF91BF91CE
:10421000AF919F918F917F916F915F914F913F915E
:104220002F910F900BBE0F900FBE0F901F901895FF
:104230001F920F920FB60F9211240BB60F922F936D
:104240003F934F935F936F937F938F939F93AF931E
:10425000BF93EF93FF9348EA50E064EA70E083E095
:1042600090E00E94B409FF91EF91BF91AF919F91AF
:104270008F917F916F915F914F913F912F910F900F
:104280000BBE0F900FBE0F901F9018951F920F92AC
:104290000FB60F9211240BB60F922F933F934F93AB
:1042A0005F936F937F938F939F93AF93BF93EF939E
:1042B000FF9348E950E064E970E082E090E00E94FA
:1042C000B409FF91EF91BF91AF919F918F917F9131
:1042D0006F915F914F913F912F910F900BBE0F9077
:1042E0000FBE0F901F9018951F920F920FB60F924E
:1042F00011240BB60F922F933F934F935F936F93BD
:104300007F938F939F93AF93BF93EF93FF9348E86F
:1043100050E064E870E081E090E00E94B409FF9111
:10432000EF91BF91AF919F918F917F916F915F912D
:104330004F913F912F910F900BBE0F900FBE0F909A
:104340001F901895CF92DF92EF92FF920F931F93D9
:10435000E82FF92F05C0015011092109310961F138
:10436000908196239417B9F305C0015011092109D2
:10437000310911F1908196239413F7CFC12CD12CE0
:10438000E12CF12C0AC08FEFC81AD80AE80AF80A03
:104390000C151D052E053F0579F0808186238417B5
:1043A00091F36C2D7D2D8E2D9F2D1F910F91FF90E0
:1043B000EF90DF90CF90089560E070E080E090E0B3
:1043C0001F910F91FF90EF90DF90CF900895FC0127
:1043D0008AE192E09183808382E992E093838283F1
:1043E0001482158216821782108611861286138611
:1043F000148615861686178680E393E0918B808B52
:10440000128A138A148A158A168A178A108E118EB8
:10441000128E138E148E158E168E178E10A211A268
:1044200012A208951092EC041092EB0488EE93E02F
:10443000A0E0B0E08093ED049093EE04A093EF042D
:10444000B093F00426E532E03093EA042093E904C7
:1044500045E351E05093F6044093F50444E351E002
:104460005093F8044093F70440E351E05093FA046A
:104470004093F90441E351E05093FC044093FB0462
:1044800042E351E05093FE044093FD0446E351E0C3
:10449000509300054093FF0410920205109203050B
:1044A000109204051092050510929505109294053E
:1044B0008093960590939705A0939805B0939905DE
:1044C000309393052093920525EC30E030939F05BF
:1044D00020939E0524EC30E03093A1052093A005A5
:1044E00020EC30E03093A3052093A20521EC30E0CE
:1044F0003093A5052093A40522EC30E03093A70566
:104500002093A60526EC30E03093A9052093A8055A
:104510001092AB051092AC051092AD051092AE054D
:10452000109289051092880580938A0590938B05D7
:10453000A0938C05B0938D0588E692E09093870553
:10454000809386058091BF06803308F090C391E088
:10455000980F9093BF068093CF0E90E0FC01EE0F72
:10456000FF1FE80FF91FE15DF94F88EB9BE0928395
:1045700081831092220E1092230E1092250E10921B
:10458000240E1092260E1092270E1092280E1092D2
:10459000290E10922A0E10922C0E10922B0E1092B1
:1045A0002D0E10922E0E10922F0E1092300E109291
:1045B000310E1092330E1092320E1092340E109271
:1045C000350E1092360E1092370E1092380E109251
:1045D0003A0E1092390E10923B0E10923C0E109231
:1045E0003D0E10923E0E10923F0E1092440E10920D
:1045F000450E1092460E1092470E1092480E1092E1
:10460000490E1092520E1092530E1092540E1092A8
:10461000550E1092560E1092570E1092600E109278
:10462000610E1092660E1092670E1092680E109234
:10463000690E10926E0E10926F0E1092740E109200
:10464000750E1092760E1092770E10927C0E1092CC
:104650007D0E1092820E1092830E1092840E109294
:10466000850E10928A0E10928B0E1092900E109260
:10467000910E1092920E1092930E1092980E10922C
:10468000990E10929E0E10929F0E1092A00E1092F4
:10469000A10E1092A60E1092A70E82E08093B70E84
:1046A0001092B80E1092B90E1092BA0E1092BC0E63
:1046B0001092BB0E1092BE0E1092BD0E1092BF0E45
:1046C0001092C00E1092C10E1092C20E1092C30E24
:1046D0001092C40E1092C50E1092C60E1092C70E04
:1046E0001092C80E1092C90E1092CA0E1092CB0EE4
:1046F0001092CC0E1092CD0E1092CE0E1092A80EEB
:104700008AED92E0909375098093740982E995E0AF
:10471000909377098093760980E091EEA0E0B0E075
:104720008093780990937909A0937A09B0937B09D3
:104730001092F60D8EEC92E09093050E8093040E8D
:1047400010921A0E10921B0E10921C0E10921D0E3B
:104750001092210E1092200EE8E8FDE08AEB9DE019
:10476000119211928E179F07D9F7EAEBFDE0119293
:1047700011928DE0EC3EF807D1F7E8E8F9E088E81F
:104780009BE011928E179F07E1F7E8E8FBE011929A
:104790008DE0E838F807D9F71092060E1092070E50
:1047A0001092080E1092090E10920F0E10920E0E1B
:1047B0001092100E1092110E1092120E1092130EF3
:1047C0001092190E1092180E80EF92E090934C09FF
:1047D00080934B0982EC92E09093530980935209A5
:1047E00086EB92E0909355098093540910925609F4
:1047F00010925709109258091092590910925A09AB
:1048000010925B0910925C0910925D0910925E098A
:1048100010925F09109260091092610990936309E8
:1048200080936209109264091092650910926609DA
:1048300010926709109268091092690910926A092A
:1048400010926B0910926C0910926D0910926E090A
:1048500010926F0988EA93E0909371098093700930
:1048600081E090E0909373098093720989E593E069
:104870009093500980934F091092510984EE92E071
:104880009093460980934509109247091092480970
:104890001092490910924A0981E693E090933B09EE
:1048A00080933A0910923C0985E499E090933E097F
:1048B00080933D0910924409109243098AEA92E0DC
:1048C0009093F3088093F20882E992E09093F508C0
:1048D0008093F4081092F6081092F7081092F808E6
:1048E0001092F9081092FA081092FB081092FC0836
:1048F0001092FD081092FE081092FF081092000915
:104900001092010980E393E09093030980930209D8
:104910008EE992E0909305098093040910920609AC
:1049200010920809109207091092090910920A09B9
:1049300010920B0910920C0910920D0910920E0999
:1049400010920F0910921009109211091092120979
:104950001092130910921409E5E1F9E011921192F5
:104960001192119289E0E933F807C1F710923909E1
:104970008DE693E09093E8088093E7081092E908A9
:1049800082EF98E09093EB088093EA081092F10888
:104990001092F00886E892E090933C0880933B08E0
:1049A00082E992E090933E0880933D0810923F0880
:1049B0001092400810924108109242081092430849
:1049C0001092440810924508109246081092470829
:1049D000109248081092490810924A0880E393E028
:1049E00090934C0880934B088AE792E090934E088E
:1049F00080934D0810924F08109250081092510861
:104A000010925208109253081092540810925508B0
:104A10001092560810925708109258081092590890
:104A200010925A0810925B0810925C0810925D0870
:104A300010925E08EFE5F8E0119211921192119236
:104A400088E0E338F807C1F786EB92E0909384089A
:104A50008093830810928508109286081092870828
:104A6000109288081092890810928A0810928B0878
:104A700010928C0810928D0810928E0810928F0858
:104A800010929008E1E9F8E01192119211921192BE
:104A900088E0E53BF807C1F786EB92E09093B60813
:104AA0008093B5081092B7081092B8081092B90810
:104AB0001092BA081092BB081092BC081092BD0860
:104AC0001092BE081092BF081092C0081092C10840
:104AD0001092C208E3ECF8E0119211921192119237
:104AE00088E0E73EF807C1F781E793E0909331084B
:104AF00080933008109232088BE398E0909334084A
:104B00008093330810923A08109239088DE098E0AB
:104B10000E94E72185E793E09093030880930208C1
:104B2000109204088DE098E09093060880930508A1
:104B300010920C0810920B088FED97E00E94E7216D
:104B40008CE793E09093D5078093D4071092D60713
:104B50008FED97E09093D8078093D7071092DE07E8
:104B60001092DD0781EB97E00E94E72183E893E054
:104B70009093A7078093A6071092A80781EB97E070
:104B80009093AA078093A9071092B0071092AF07DD
:104B900083E897E00E94E7218AE893E09093790701
:104BA0008093780710927A0783E897E090937C07C8
:104BB00080937B07109282071092810785E597E02A
:104BC0000E94E72181E993E090934B0780934A0785
:104BD00010924C0785E597E090934E0780934D0720
:104BE000109254071092530787E297E00E94E72142
:104BF00088E993E090931D0780931C0710921E078D
:104C000087E297E09093200780931F071092260772
:104C10001092250789EF96E00E94E7218FE993E043
:104C20009093EF068093EE061092F00689EF96E0DF
:104C30009093F2068093F1061092F8061092F70610
:104C40008BEC96E00E94E72186EA93E09093C10600
:104C50008093C0061092C2068BEC96E09093C40637
:104C60008093C3061092CA061092C90608958FEF6A
:104C70008093CF0E7ECCCF93DF93CDB7DEB7629714
:104C80000FB6F894DEBF0FBECDBF789484B58260B6
:104C900084BD84B5816084BD85B5826085BD85B5E0
:104CA000816085BD80916E00816080936E0010925E
:104CB00081008091810082608093810080918100D9
:104CC000816080938100809180008160809380006A
:104CD0008091B10084608093B1008091B0008160C8
:104CE0008093B000809191008260809391008091C8
:104CF0009100816080939100809190008160809309
:104D000090008091A10082608093A1008091A10019
:104D100081608093A1008091A00081608093A000B9
:104D20008091210182608093210180912101816025
:104D300080932101809120018160809320018091E6
:104D40007A00846080937A0080917A0082608093F8
:104D50007A0080917A00816080937A0080917A0055
:104D6000806880937A001092C1008091CF0E8033CA
:104D700008F052C061E088E00E9435058091CF0EB6
:104D8000282F30E0F901EE0FFF1FE20FF31FE15D66
:104D9000F94F9081907C986090831092D00E109281
:104DA000D10E2CE0622F0E941B31829FB001112492
:104DB00030E020E0AB01420F531FFA01EE0FFF1F5E
:104DC000E40FF51FE15DF94F908196FD17C02F5F4D
:104DD0003F4F2C30310571F7813009F02FC310920D
:104DE000800082E080938100109285001092840000
:104DF000B19A80916F00826080936F00E091CF0E36
:104E00008E2F90E0FC01EE0FFF1FE80FF91FE15D10
:104E1000F94F80818064808361E086E00E943505DF
:104E200061E087E00E94350560E082E10E9435057F
:104E300060E08BE20E94350560E08CE20E9435055F
:104E400060E083E10E94350561E086E10E9435055E
:104E500060E087E10E94350561E088E10E94350548
:104E600060E089E10E94350561E08AE10E94350534
:104E700060E08BE10E94350561E08CE10E94350520
:104E800060E08DE10E94350561E08EE10E9435050C
:104E900060E08FE10E94350561E080E20E94350507
:104EA00060E081E20E94350561E082E20E94350502
:104EB00060E083E20E94350561E084E20E943505EE
:104EC00060E085E20E94350560E086E10E9407050A
:104ED00060E088E10E94070560E08AE10E94070522
:104EE00060E08CE10E94070560E08EE10E9407050A
:104EF00060E080E20E94070560E082E20E94070510
:104F000040E051EE60E070E082E995E00E94C2036B
:104F100040E855E260E070E089EE94E00E94C20350
:104F200010927804109277041092C6041092E8044C
:104F30000E94070883EA96E090930B0480930A048A
:104F400084EA96E0909309048093080483E50E9424
:104F5000430481E390E00E94AC0981E090E00E946C
:104F6000AC090E94460883E50E9443048DE290E06C
:104F70000E94AC0988E090E00E94AC090E944608BB
:104F80008EE10E94430482E090E00E94AC0990E030
:104F900080E00E94AC090E94460888E60E94430413
:104FA0008EE390E00E94AC0990E080E00E94AC09A2
:104FB0000E94460888E60E94430485E190E00E9432
:104FC000AC0987E090E00E94AC090E94460888E6A0
:104FD0000E94430486E190E00E94AC098EE190E0DB
:104FE0000E94AC090E94460888E60E94430487E1BB
:104FF00090E00E94AC0990E080E00E94AC090E9421
:1050000046080E946206109276041092750410926F
:1050100064041092630410926204109261043AE0F6
:10502000B32E0E9462060E94EE128C01609106046B
:1050300070910704072E000C880B990B0E94EE2F2D
:10504000F80120813181428153810E94D32E0E9438
:10505000B62F6B01709307046093060460910404FB
:1050600070910504072E000C880B990B0E94EE2FFF
:10507000F80124813581468157810E94D32E0E94F8
:10508000B62F7B01709305046093040460910204C1
:1050900070910304072E000C880B990B0E94EE2FD1
:1050A000F80120853185428553850E94D32E0E94C8
:1050B000B62F9B017093030460930204BA94B1105D
:1050C000B0CFEAE0F0E0C601BF010E942731709343
:1050D000760460937504C701BF010E942731709365
:1050E000640460936304C901BF010E942731709377
:1050F000620460936104409178095091790960914C
:105100007A0970917B0980917609909177090E94C4
:10511000C2031092ED0D1092EC0D1092EF0D109253
:10512000EE0D1092F30D1092F20D1092F10D1092FF
:10513000F00D80E398E00E94220487EE98E00E9440
:1051400022048AE399E00E94220482E098E00E940F
:10515000220484ED97E00E94220486EA97E00E94F0
:10516000220488E797E00E9422048AE497E00E94E4
:1051700022048CE197E00E9422048EEE96E00E94C9
:10518000220480EC96E00E942204EAEBFDE090E02D
:1051900080E021913191232B09F07CC1FC01EE0FBD
:1051A000FF1FE654F24F2BE439E0318320838C5902
:1051B0009F4F90934E0980934D09BEE2EB2EBCE1C8
:1051C000FB2E18E5212E12E0312E04EB402E512C3F
:1051D000612C712C03E210E0F0920102E0920002D7
:1051E00080916A008C7F816080936A00EC9AF092D3
:1051F0000302E092020280916A00837F84608093C0
:105200006A00ED9AF0920902E0920802809169002A
:105210008F7C806180936900EA9AF0920B02E092A1
:105220000A02809169008F73806480936900EB9A11
:1052300060915404709155048091560490915704E4
:105240000E94B62F9B01AC01265F3F4F4F4F5F4F2F
:10525000A4EBB0E00E948E2E24E130E040E050E06C
:105260000E946F2ECA01B9010E94EE2F0E94B62F34
:105270004B016032F2E07F07CCF52091D00EE8E8D8
:105280008E2E912C821A910827FD9394880C991CDC
:10529000880C991C092C000CAA08BB082091D10E7F
:1052A000A101421B510927FD53959A01220F331F7B
:1052B000220F331F032E000C440B550B28193909FC
:1052C0004A095B09DB01653B710514F0A4EBB0E012
:1052D000B7FF02C0B0E0A0E00E94992EA3019201A6
:1052E0000E946F2E820E931EA41EB51E2091CF0E1B
:1052F000203380F58091D00E68E870E0681B71095A
:1053000087FD7395CB01880F991F880F991F881609
:10531000990684F08091D10EF101E81BF10987FD17
:10532000F395CF01880F991F880F991F881699064A
:105330000CF4C4010297880F991F4FB7F89430E01E
:10534000F901EE0FFF1FE20FF31FE15DF94F9283AA
:1053500081834FBF8090500490905104A0905204DC
:10536000B090530420E030E0A901C501B4010E94CF
:105370003F2F811195C080E090E0A0E0B4E48093DD
:105380004C0490934D04A0934E04B0934F0480902E
:105390004C0490904D04A0904E04B0904F0420E037
:1053A00030E040E054E4C501B4010E943F2F87FF84
:1053B0008EC020E030E84FEF53E4C501B4010E94F5
:1053C000D22E905820E030E040E05FE30E949E3013
:1053D0000E94B62F4B0170E060E084E00E946605F9
:1053E000B40185E00E94660570E060E086E00E94FE
:1053F0006605B40187E00E94660580914A04909199
:105400004B040A9724F010924B0410924A04E09146
:105410004A04F0914B04E930F10508F0A2C0882756
:10542000EB5EF54D8F4F0C943B31872A392C642C61
:105430008F2CBA2CE52C102D3B2D662D823061F47B
:105440001092900080939100109295001092940019
:1054500088BB80937100D2CC833069F41092A00095
:1054600082E08093A1001092A5001092A40089BB55
:1054700080937200C3CC8111C1CC1092200182E0D4
:105480008093210110922501109224018ABB809300
:105490007300B4CC01968931910509F07ACE8DCE96
:1054A00020E030E040E054E4C501B4010E949E30A9
:1054B00020E030E040E054E40E94D32E60934C049E
:1054C00070934D0480934E0490934F0460CF20E07E
:1054D00030E040E054E4C501B4010E94D22E20E047
:1054E00030E040E05FE30E949E300E94B62F4B0107
:1054F00084E00E94660570E060E085E00E94660539
:10550000B40186E00E94660570E060E073CF61E060
:1055100086E10E940705C8010197F1F760E086E186
:105520000E94070587E10E9488130E94EC2F20E06B
:1055300030E040E05FE30E949E3023EF38E642EB2C
:1055400059E30E949E3020E030E048EC52E40E9493
:105550009E30609346047093470480934804909370
:10556000490480914A0490914B04019690934B0416
:1055700080934A046091280470912904072E000C3E
:10558000880B990B0E94EE2F60934F087093500880
:1055900080935108909352086091260470912704DB
:1055A000072E000C880B990B0E94EE2F6093530876
:1055B0007093540880935508909356086091240482
:1055C00070912504072E000C880B990B0E94EE2F7A
:1055D00060935708709358088093590890935A081D
:1055E0006091220470912304072E000C880B990B04
:1055F0000E94EE2F6093B7087093B8088093B908A3
:105600009093BA086091200470912104072E000C39
:10561000880B990B0E94EE2F6093BB087093BC0817
:105620008093BD089093BE0860911E0470911F0482
:10563000072E000C880B990B0E94EE2F6093BF0879
:105640007093C0088093C1089093C20860911C04B5
:1056500070911D04072E000C880B990B0E94EE2FF1
:1056600060938508709386088093870890938808D4
:1056700060911A0470911B04072E000C880B990B83
:105680000E94EE2F6093890870938A0880938B089C
:1056900090938C086091180470911904072E000CE7
:1056A000880B990B0E94EE2F60938D0870938E08E3
:1056B00080938F08909390081092090910920A091C
:1056C00010920B0910920C0910920D0910920E09FC
:1056D00010920F09109210091092110910921209DC
:1056E00010921309109214091092390980914604FE
:1056F00090914704A0914804B091490480932C08EC
:1057000090932D08A0932E08B0932F0880913E040B
:1057100090913F04A0914004B09141048093FE0712
:105720009093FF07A0930008B0930108809136047E
:1057300090913704A0913804B09139048093D00738
:105740009093D107A093D207B093D30780913204EE
:1057500090913304A0913404B09135048093A20752
:105760009093A307A093A407B093A50780913A0450
:1057700090913B04A0913C04B0913D048093740748
:1057800090937507A0937607B093770780914204B2
:1057900090914304A0914404B0914504809346073E
:1057A00090934707A0934807B093490780912A0434
:1057B00090912B04A0912C04B0912D048093180794
:1057C00090931907A0931A07B0931B0780912E049A
:1057D00090912F04A0913004B09131048093EA0697
:1057E0009093EB06A093EC06B093ED0662EF78E0A1
:1057F00087EE98E00E94120D6BE378E080E398E07A
:105800000E94120D6DE078E082E098E00E94120D97
:105810006FED77E084ED97E00E94120D61EB77E089
:1058200086EA97E00E94120D63E877E088E797E048
:105830000E94120D65E577E08AE497E00E94120D60
:1058400067E277E08CE197E00E94120D69EF76E065
:105850008EEE96E00E94120D6BEC76E080EC96E006
:105860000E94120D84E799E00E9471180E94B3070C
:10587000B3CC61E080E20E940705C8010197F1F70F
:1058800060E080E20E94070581E20E9488130E9486
:10589000EC2F20E030E040E05FE30E949E3023EFF9
:1058A00038E642EB59E30E949E3020E030E048ECBD
:1058B00052E40E949E3060934204709343048093AC
:1058C0004404909345044DCE61E088E10E940705B1
:1058D000C8010197F1F760E088E10E94070589E1BE
:1058E0000E9488130E94EC2F20E030E040E05FE34C
:1058F0000E949E3023EF38E642EB59E30E949E302F
:1059000020E030E048EC52E40E949E3060933E0478
:1059100070933F04809340049093410422CE61E051
:105920008EE10E940705C8010197F1F760E08EE162
:105930000E9407058FE10E9488130E94EC2F20E04F
:1059400030E040E05FE30E949E3023EF38E642EB18
:1059500059E30E949E3020E030E048EC52E40E947F
:105960009E3060933A0470933B0480933C04909380
:105970003D04F7CD61E08AE10E940705C801019767
:10598000F1F760E08AE10E9407058BE10E9488132D
:105990000E94EC2F20E030E040E05FE30E949E3068
:1059A00023EF38E642EB59E30E949E3020E030E0DE
:1059B00048EC52E40E949E306093360470933704A2
:1059C0008093380490933904CCCD61E08CE10E943F
:1059D0000705C8010197F1F760E08CE10E94070517
:1059E0008DE10E9488130E94EC2F20E030E040E01F
:1059F0005FE30E949E3023EF38E642EB59E30E94BA
:105A00009E3020E030E048EC52E40E949E306093EB
:105A10003204709333048093340490933504A1CD01
:105A200061E084E20E940705C8010197F1F760E098
:105A300084E20E94070585E20E9488130E94EC2FF1
:105A400020E030E040E05FE30E949E3023EF38E644
:105A500042EB59E30E949E3020E030E048EC52E4F3
:105A60000E949E3060932E0470932F048093300424
:105A70009093310476CD61E082E20E940705C8016F
:105A80000197F1F760E082E20E94070583E20E943D
:105A900088130E94EC2F20E030E040E05FE30E949A
:105AA0009E3023EF38E642EB59E30E949E3020E01F
:105AB00030E048EC52E40E949E3060932A047093D8
:105AC0002B0480932C0490932D044BCD8EE10E94E7
:105AD000430483E090E00E94AC090E94460866E01F
